:020000040000FA
:10000000080C002011070000190700001D07000060
:1000100000000000000000000000000000000000E0
:100020000000000000000000000000003507000094
:10003000000000000000000037070000610200001F
:1000400055070000B51700003D0700008B0F0000AA
:100050009B0F0000AB0F0000B50F0000550700001C
:100060005507000055070000550700005507000020
:100070005507000055070000550700005507000010
:10008000550700005507000055070000BD2000007F
:10009000C720000055070000550700005507000065
:1000A00055070000550700005507000055070000E0
:1000B00055070000550700005507000055070000D0
:1000C00000F002F800F0BDF80CA030C80838241881
:1000D0002D18A246671EAB4654465D46AC4201D180
:1000E00000F0AFF87E460F3E0FCCB64601263342F5
:1000F00000D0FB1AA246AB4633431847903E00009F
:10010000B03E0000103A02D378C878C1FAD852073E
:1001100001D330C830C101D504680C6070470000BD
:100120000023002400250026103A01D378C1FBD813
:10013000520700D330C100D50B60704710B56E294F
:1001400002D102F029FD10BD702902D102F09FFA00
:1001500010BD662902D103F069FE10BD652902D1E8
:1001600003F064FE10BD672902D103F05FFE10BDED
:10017000612902D103F062FE10BD03681B0A01D39E
:1001800080231943692902D102F0D0FC10BD6429F3
:1001900002D102F0CBFC10BD752902D102F0C6FCE1
:1001A00010BD6F2902D102F013FE10BD782902D1D3
:1001B00002F05AFA10BDE92902D102F0AFFD10BDDC
:1001C000E42902D102F0AAFD10BDF52902D102F006
:1001D000A5FD10BDEF2902D102F006FE10BDF829E1
:1001E00002D102F04FFA10BD0368DB0901D380236E
:1001F0001943632902D102F013FD10BD732902D106
:1002000002F016FD10BDE32902D103F0B8F910BDCC
:10021000F32902D103F0BBF910BD002010BD1FB5BA
:1002200003F014FA04000020002103F0E9FD401C53
:1002300060600020002103F0CDFDE0601FBD10B51F
:1002400010BD03F0DCF91146FFF7E9FF00F081F87B
:1002500003F070FD03B4FFF7F2FF03BC02F05AF89D
:100260006B480068002804D069480068401E68494F
:10027000086070477D21C9006648006802F03CFBB9
:100280000546681E6449884201D901200CE0681EB9
:10029000624948610321081F00F082F800205F498D
:1002A00088610720086100200646002E02D05CA06D
:1002B00001F0C8FF00241CE06200604BD2185178A6
:1002C0006200985C012200F025FC62005B4BD218B2
:1002D00051786200985C002200F062FC6200574B8B
:1002E000D21851786200985C002200F075FC601C06
:1002F000C4B2062CE0D32BE0002411E032204449A4
:10030000086000BF424800680028FBD162004B4BE8
:10031000D21851786200985C00F0D5FC601CC4B221
:10032000062CEBDB002411E032203949086000BFC5
:10033000374800680028FBD16200404BD218517842
:100340006200985C00F0D5FC601CC4B2062CEBDBAC
:10035000D2E700F07FF900F0D9F800F03EF938A0BC
:1003600001F070FF37A001F06DFF43A144A001F040
:1003700069FF46A149A001F065FF4B22D20100218F
:1003800049A001F05FFF4FA251A154A001F05AFF14
:1003900055A001F057FF2BA001F054FFFFF76AFFB3
:1003A00010B5002819DB574A03231B02D218830813
:1003B0009B00D2588307DC0EFF23A3409A438B0790
:1003C0001B0E8407E40EA3401A434E4B0324240261
:1003D0001B198408A4001A5118E04B4A03071B0F8D
:1003E000083B9B089B00D2588307DC0EFF23A340E9
:1003F0009A438B071B0E8407E40EA3401A43424B1B
:100400000407240F083CA408A4001A5110BD0000E2
:100410000C00002028000020FFFFFF0000E000E0AB
:100420006572726F7220636F6E6669677572696E4E
:1004300067207379737469636B0A00000000002001
:100440000A0000002A2A2A2A2A2A2A2A2A2A2A2AAA
:100450002A2A2A2A2A2A2A2A2A2A2A2A2A2A2A2AFC
:100460002A2A2A2A2A2A2A2A2A2A2A2A2A2A2A2AEC
:100470002A2A2A2A0A000000413331543231580016
:1004800009204D43553A2025730A000041524D2062
:10049000436F727465782D4D302B00000920436F37
:1004A00072653A2025730A00092044656275673A2F
:1004B00020554152542564202D2025646270730A12
:1004C0000000000031333A32353A31380000000084
:1004D0004D617920313120323032310009202573CD
:1004E0002C2025730A000000092053746172746582
:1004F00072204B6974204750494F20426C696E6BE3
:10050000790A000000E100E01CED00E01FB50E4993
:1005100003C9039102906846007A07280FD10A495F
:10052000083103C9019100900849039802F0E4F9E9
:10053000401E69464870684600F0B6FE00BF02A83B
:1005400000F089FE1FBD00004C3E000040420F003D
:1005500070B504460D4602202040002801D001F06D
:100560002DFFE007C00F002801D001F049FF70BD4A
:100570001CB5304903C90191009000232E4A6946F9
:10058000184601F043FA1CBD10B5002001F0C5FB70
:1005900010BD10B5044601231A462146002001F083
:1005A00044FB10BD10B50446002301222146184625
:1005B00001F03BFB10BD10B5044601231A4621464D
:1005C000002001F0CAFA10BD10B504460023012234
:1005D0002146184601F0C1FA10BD10B501220421D0
:1005E000104600F0B8FA02220421012000F092FA2D
:1005F00001220421104600F0EFFA012205211046E5
:1006000000F0A9FA02220521012000F083FA01225C
:100610000521104600F0E0FA084801F006FF10BD81
:1006200004460D462A46214605A001F00BFE00BFF8
:10063000FEE700005C3E00005105000010000020B5
:100640004153534552542025732061742025640A78
:100650000000000010B500F013FA10BD10B5032221
:100660000021104600F077FA02220021032000F05A
:1006700051FA002000F0EFFF10BD10B50122042157
:10068000104600F068FA02220421012000F042FA2C
:1006900001220421104600F09FFA01220521104694
:1006A00000F059FA02220521012000F033FA01225C
:1006B0000521104600F090FA10BD000072B60E48F9
:1006C0000E49086015200E490863512008638120F7
:1006D0000C494860282048600B48086300204860A7
:1006E0007047002101E000BF491C084A12684243DC
:1006F0008A42F8D870470000A095695A001A004055
:10070000C01F004000010040000358783000002066
:100710001448804714480047FEE7FEE7042071466E
:10072000084203D0EFF3098010490847EFF308802F
:100730000E490847FEE7FEE7FEE7FEE704207146A4
:10074000084203D0EFF3098009490847EFF3088016
:1007500007490847FEE7000006480749074A084BD3
:1007600070470000BD060000C1000000B721000076
:100770003B07000008040020080C002008080020A7
:10078000080800206C480078042802D10620C043E5
:10079000704769480078002818D101208007806AD6
:1007A00010218843890688620846006B102188431F
:1007B000890608630846806A102108438906886212
:1007C0000846006B10210843890608635A480078E0
:1007D000401C594908700020DAE757480078002883
:1007E00001D1C01F704754480078401E524908701C
:1007F0000846007800280CD101208007806A10216B
:100800008843890688620846006B10218843890660
:1008100008630020E6E770B504460D46042C00DAB4
:1008200003E04A2145A0FFF7FBFE5148005D002888
:1008300002D00220C04370BD204600F077F8064683
:1008400000203060287800020F21090208406978F2
:1008500089000C2211400843A97849000222114066
:10086000084330600120424908550020E3E710B5F5
:100870000446042C00DA03E0622130A0FFF7D0FE2A
:1008800000203B49085510BDFFB581B00D46164606
:100890001F460198042800DA03E06E2127A0FFF725
:1008A000BFFE380433490840002800D103E06F211F
:1008B00022A0FFF7B5FE019800F038F80446206842
:1008C0002C490840206020683904084320602068D3
:1008D000022108404008002802D1A660E56001E03E
:1008E000A560E660606801210843606000BF606841
:1008F000802108400028FAD060684008400060600D
:10090000002005B0F0BD70B50546042D00DA03E007
:1009100092210AA0FFF784FE284600F007F804465B
:100920006068400840006060002070BD014608011A
:10093000114A801870470000340000202E2E5C2ED3
:100940002E5C2E2E5C2E2E5C2E2E5C6472697665DB
:10095000725C613331743231785C736F75726365C8
:100960005C613331743231785F646D612E630000F5
:1009700035000020FFFF00F00004004010B50246E3
:100980000B46002118E00C204843F84C205C9042B4
:1009900007D10C20484300194078984201D148B251
:1009A00010BD0C204843F14C00194068002801D1CB
:1009B00048B2F5E7481CC1B20429E4DB0020C0437B
:1009C000EEE7FFB581B005460E461746062D02DA62
:1009D0000D2E00DA03E04621E5A0FFF721FE3146A7
:1009E0002846FFF7CBFF0446601C002802D1C01F39
:1009F00005B0F0BD0C206043DC490D540C20604371
:100A0000401846700C206043401847600C21614339
:100A1000D64A8918049888600020E9E770B5054631
:100A20000E46E048405D002800D070BD284600F02A
:100A300004FB0446002C05DBE106C90E01208840BA
:100A4000D949086000BF284600F0F7FA044631464D
:100A500000F0B5FA284600F0F0FA0446002C09DB55
:100A600000BF00BFE106C90E01208840CF490860E1
:100A700000BF00BF00BF0120CA49485500BFD4E7EE
:100A800070B501208007806A3F21090208430121D7
:100A9000890788620846006B3F210902084301214B
:100AA00089070863002531E0284600F0C1FA0446B2
:100AB000012D08D10020A061BD4820602803A0605E
:100AC0000020E0601DE0042D08D10020A061B9489D
:100AD00020600020A060A803E06012E0052D08D18E
:100AE0000020A061B4482060B448A0600020E0600D
:100AF00007E00020A061AE48403820600020A060E0
:100B0000E060002060602061681CC5B2062DCBDB70
:100B1000002070BDF7B50C4615460098062804DA8B
:100B20000D2C02DA032D00DA03E0B02190A0FFF7CC
:100B300077FD009800F07CFA0646376861000320D4
:100B40008840394681430F46610028468840074364
:100B500037600020FEBDF7B50E46009800F068FA39
:100B60000746072E0EDD304608388006040EFD6865
:100B70000F20A040294681430D460298A04005431E
:100B8000FD600BE0B006040EBD680F20A0402946B2
:100B900081430D460298A0400543BD600020FEBD84
:100BA000F7B507460C46062F02DA0D2C00DA03E0F3
:100BB000E8216FA0FFF734FD384600F039FA05460A
:100BC0006E680120A040314681430E460298A04045
:100BD00006436E600020FEBDF7B507460C46062FA3
:100BE00002DA0D2C00DA03E0FC2161A0FFF718FD0A
:100BF000384600F01DFA05462E6961000320884042
:100C0000314681430E4661000298884006432E61BA
:100C10000020FEBDF7B507460C46062F02DA0D2C64
:100C200000DA04E0FF21113151A0FFF7F9FC38464A
:100C300000F0FEF90546AE6A0120A040314681432E
:100C40000E460298002802D00120A0400643AE6262
:100C50000020FEBDF8B504460F4615460026062CBA
:100C600000DA04E0FF21283141A0FFF7D9FC002D74
:100C700000DD04E0FF2129313DA0FFF7D1FC230076
:100C800003F07CF8060405061011121D00BF00BF1A
:100C90004B48C669F60AF6023802304328434849F1
:100CA000C8610DE000BF00BF4548C6694548064021
:100CB00038063043290408434149C86100E000BFB9
:100CC00000BF0020F8BD70B505460C46062D02DABF
:100CD0000D2C00DA04E0FF21483125A0FFF7A0FC2D
:100CE000284600F0A5F906460120A040F06100204A
:100CF00070BD70B505460C46062D02DA0D2C00DAE3
:100D000004E0FF2158311AA0FFF78AFC284600F0C2
:100D10008FF906460120A0403062002070BDF7B573
:100D20000C4615460098062802DA0D2C00DA04E07D
:100D3000FF2169310EA0FFF773FC009800F078F9ED
:100D40000646706987B238462041C007C00F0028A8
:100D500002D00120287001E0002028700020FEBD94
:100D600070B504460D46062C2EDA32E058000020FD
:100D70002E2E5C2E2E5C2E2E5C2E2E5C2E2E5C6477
:100D800072697665725C613331743231785C736F8D
:100D9000757263655C613331743231785F67706995
:100DA0006F2E63003900002080E200E000E100E0E7
:100DB00095555555555555565AAA555533004444E1
:100DC00080000040FFFF00F8FF2182319F48FFF7BD
:100DD00027FC204600F02CF90646B561002070BDC6
:100DE00070B504460D46062C00DA04E0FF2191316F
:100DF0009648FFF715FC204600F01AF90646706980
:100E00002870002070BDFFB581B00C4601980628FF
:100E100002DA0D2C00DA04E0FF21A5318B48FFF740
:100E2000FFFB019800F004F90546EE6A6F6B286B32
:100E30000090610003208840314681430E466100E6
:100E400003208840394681430F46610003208840D3
:100E500000990843009061000398884006436100B0
:100E6000049888400743EE626F63009828630A99EC
:100E70000198FFF7D3FD002005B0F0BDF3B583B0B6
:100E80000D460398062802DA0D2D00DA04E0FF2152
:100E9000C6316E48FFF7C4FB039800F0C9F804465A
:100EA000E76A606B0290206B019069000320884024
:100EB000394681430F4668000321814002988843E8
:100EC0000290690003208840019908430190E7627D
:100ED0000299616301992163002F1DD1039800F0ED
:100EE000ACF80646002E15DBF106C90E012088403D
:100EF0005749086000BF00BF00BFBFF34F8F00BF5E
:100F000000BF00BF00BF00BF00BFBFF36F8F00BFB7
:100F100000BF00BF00BF00BF002005B0F0BDFEB5A0
:100F20000646304600F084F801900198006B00906E
:100F30000C20704347494418002520E069000098C0
:100F4000C8408007800F002817D0002712E00C202F
:100F50007843404944182078B04209D16078A842CB
:100F600006D16068002802D06168A068884703E065
:100F7000781CC7B2042FEADB00BF681CC5B20D2D78
:100F8000DCDB019900980863FEBD10B50020FFF777
:100F9000C6FF0120FFF7C3FF10BD10B50220FFF709
:100FA000BEFF0320FFF7BBFF10BD10B50420FFF705
:100FB000B6FF10BD10B50520FFF7B1FF10BD10B58D
:100FC00000281BDB224A803A03231B02D218830825
:100FD0009B00D2588307DC0EFF23A3409A438B0764
:100FE0001B0E8407E40EA3401A43194B803B0324D5
:100FF00024021B198408A4001A5118E0164A03079A
:101000001B0F083B9B089B00D2588307DC0EFF2375
:10101000A3409A438B071B0E8407E40EA3401A4398
:101020000D4B0407240F083CA408A4001A5110BD5E
:1010300001460802094A8018704701460A46C80F4F
:1010400080184010C01C40B270470000700D0000B6
:1010500080E100E0580000201CED00E0001000409E
:10106000FA49884209D88121F94A51602821516002
:10107000F84911630021516022E0F749884209D8FC
:101080008121F34A516028215160F4491163002104
:10109000516015E0F249884209D88121EC4A51603B
:1010A00028215160EF4911630021516008E081213E
:1010B000E74A516028215160EB49116300215160DA
:1010C0007047F8B505460E462B0002F057FE08059E
:1010D0002B51BDBDBD789EBDDD48C03804680F21D1
:1010E000090220468843044630020443DF48204377
:1010F000D749C03908600020009002E00098401CE9
:10110000009000980628F9D3D148C0384468E40814
:10111000E400204628430446D5482043CC49C03942
:10112000486096E0CA48C03804680F210903204689
:101130008843044630030443CC482043C449C039A3
:1011400008600020009002E00098401C0090009889
:101150003C28F9D3BE48C0384468E408E40020467F
:1011600028430446C2482043B949C039486070E06A
:10117000B748C0380468F02120468843044630014F
:101180000443BA482043B249C039086000200090A7
:1011900002E00098401C0090FF21813100988842B5
:1011A000F7D3AB48C0384468E408E400204628433D
:1011B0000446AF482043A649C039486049E0A448E6
:1011C000C038046824092401204630430446A74857
:1011D00020439F49C03908600020009002E0009839
:1011E000401C00900F21890100988842F7D398484D
:1011F000C0384468E408E4002046284304469C487C
:1012000020439349C039486023E09A48807E0028F3
:101210000CD18F48C0384468E408E400032004433C
:10122000934820438A49C03948600CE08848C03858
:101230004468E408E4002046284304468C482043E0
:101240008349C039486004E0A3218BA0FFF7E8F987
:1012500000BF00BFF8BD10B504462078072807D1AD
:101260008448007E012803D0AE2183A0FFF7D8F97F
:1012700061782078FFF725FF20787E4948768B49F2
:10128000606808608A4960680860884909681222B5
:1012900051430846874901F02FFB8749086087487A
:1012A000FFF7DEFE002010BD38B502460024002303
:1012B0005079012823D16648C0380168090A09021B
:1012C0008820014369480843614DC03D28600020E3
:1012D000009002E00098401C00900F25AD0100989E
:1012E000A842F7D35A48C0384168C908C900062047
:1012F00001435F480843564DC03D686022E05448B2
:10130000C0380168090A0902882001435748084388
:101310004F4DC03D28600020009002E00098401C26
:101320000090FF2581350098A842F7D34848C0387F
:101330004168C908C900022001434D480843444D93
:10134000C03D68601079C007C00A01256D052843BB
:10135000D5786D076D0B284355782D022843957875
:101360002D072D0E284315782D072D0F2843384DB6
:10137000C03D28622846006A2D122843344DC03DE6
:10138000286200BF3248C038006A0125ED05A84335
:101390002F4DC03D28622846006AED1128432C4D90
:1013A000C03D28620020009002E00098401C0090A0
:1013B000FF257D350098A842F7D305E02046641C40
:1013C000802801D9012306E02148C038006AC00FF7
:1013D000C0070028F2D000BF0120264D28765079A2
:1013E000A876002B02D00320C04338BD0020FCE7C4
:1013F00070B505461F48407EA84201D1002070BD4F
:101400001348C0380468002D06D0012D0DD0022DE0
:1014100014D0062D59D153E00F21090220468843EC
:1014200004460120C002044355E00F210903204671
:10143000884304460120C00304434CE0F0212046C9
:10144000884304468020044345E00000002D31011C
:101450000001004000005878005A620200015878EC
:10146000006CDC020002587800035878000007A5E1
:1014700000000A57880000202E2E5C2E2E5C2E2E97
:101480005C2E2E5C2E2E5C6472697665725C613314
:1014900031743231785C736F757263655C613331BE
:1014A000743231785F7363752E630000280000206A
:1014B0002C00002040420F003000002000E1F50524
:1014C000240924010820044305E0FF213531ED48BB
:1014D000FFF7A6F800BF00BFEB482043EB490860C8
:1014E00000208CE770B50546E8480468002D06D05A
:1014F000012D0AD0022D0ED0062D14D110E00F219F
:10150000090220468843044613E00F2109032046C0
:10151000884304460DE0F02120468843044608E055
:101520002409240105E0FF215331D648FFF778F85C
:1015300000BF00BFD4482043D4490860002070BDDC
:10154000F8B506460C4615461F46022E19D0062E43
:1015500002D00A2E1FD109E0CC488068C021084380
:10156000CA498860CA480460456014E0C74880687A
:10157000032189020843C5498860C5488460C56065
:1015800009E0C24880680C210843C0498860C0480F
:101590000461456100BF00BF0120002805DBC206D1
:1015A000D20E01219140BB4A116000BF3946012093
:1015B00000F031F90120002809DB00BF00BFC2069E
:1015C000D20E01219140B44A116000BF00BF00BF9C
:1015D0000020F8BD0146022913D0062902D00A29AD
:1015E00016D106E0A9488068C0229043A74A9060BF
:1015F0000EE0A6488068032292029043A34A9060BE
:1016000006E0A24880680C229043A04A906000BF88
:1016100000BF9E48806800281BD10120002816DBEF
:10162000C306DB0E01229A409B4B80331A6000BF39
:1016300000BF00BFBFF34F8F00BF00BF00BF00BFA0
:1016400000BF00BFBFF36F8F00BF00BF00BF00BF70
:1016500000BF0020704702468C48016949094901D2
:101660001007000F014310200843884B1861002029
:10167000704786480069102188438449086100202A
:101680007047014601208007006908430122920744
:1016900010610020704701460120800700698843DF
:1016A0000122920710610020704701460120800747
:1016B000806908430122920790610020704701462B
:1016C0000120800780690840012292079061002074
:1016D0007047014601208007C2690A6000207047F8
:1016E00001460120800742690A60002070470246D7
:1016F00001208007816B031208469843014690053C
:1017000001431802816300207047024601208007D0
:10171000816B8312084698430146100501439802E5
:10172000816300207047024601208007816B4313CC
:101730000846984301465004014358038163002042
:101740007047024601208007816B031508469843C5
:10175000014690020143180581630020704702464C
:1017600001208007816B1823084698430146D0006A
:101770000143012080078163002070470246012059
:101780008007816B49084900084610430146012043
:101790008007816300207047024601208007816B2B
:1017A000402308469843014690010143180681638F
:1017B0000020704710B53548806820210843334920
:1017C00088600846806802210843304988600846DE
:1017D0008068491508432D4988602D480068002815
:1017E00005D02B48416802682020904712E0284825
:1017F0000069002805D02648416902690220904707
:1018000008E023488068002804D02148C168826825
:101810000220904710BD10B5002819DB1E4A032393
:101820001B02D21883089B00D2588307DC0EFF23CB
:10183000A3409A438B071B0E8407E40EA3401A4370
:10184000154B032424021B198408A4001A5118E024
:10185000124A03071B0F083B9B089B00D2588307C3
:10186000DC0EFF23A3409A438B071B0E8407E40E74
:10187000A3401A43094B0407240F083CA408A40002
:101880001A5110BD78140000000007A54000004068
:101890008800002080E200E000E100E01CED00E0B4
:1018A000F0B585B00E46154600242879002806D0EC
:1018B000012805D0022804D0032806D102E000BF89
:1018C00000BF00BF2879044303E00520C04305B0F2
:1018D000F0BD00BF6879002806D0012809D0022891
:1018E0000ED0032816D110E0082120468843044674
:1018F00013E00820044310212046884304460CE0EE
:10190000082004431020044307E00820044320205B
:10191000044302E00520C043D9E700BFA8790028AE
:1019200002D0012808D104E004212046884304465F
:1019300005E00420044302E00520C043C7E700BFE0
:10194000F460F848006847082868010103913846A8
:10195000039900F0D1FF0290039902984843391A85
:10196000009100990802039900F0C6FF01900298C7
:1019700080B230620198C0B270620020A7E770B5F3
:101980000446022C00DA03E0D121E7A0FEF748FE6E
:10199000002C0ED101208007C06A01210903884371
:1019A0008904C8620846406B8914884389044863E7
:1019B0000DE0012C0BD1A007C06A610388434904E4
:1019C000C8620846406B491488434904486320466E
:1019D00000F0BAFB0546002D15DBE906C90E012013
:1019E0008840DE49086000BF00BF00BFBFF34F8FD3
:1019F00000BF00BF00BF00BF00BF00BFBFF36F8FBD
:101A000000BF00BF00BF00BF002070BDFFB583B0A6
:101A10000D460398022800DA03E09221C2A0FEF7E7
:101A2000FFFD002D00D003E09321BFA0FEF7F8FDDD
:101A3000282103984843CA494618039800F07FFBC1
:101A400004462821304600F011FF059830600698C2
:101A50007060C448844218D10004C06AA11488434D
:101A60008904C8620846406B891488438904486326
:101A70000846C06A891408438904C8620846406B56
:101A800089140843890448631AE0B748844217D18F
:101A90008005C06A611488434904C8620846406BE7
:101AA00049148843490448630846C06A49140843F6
:101AB0004904C8620846406B491408434904486316
:101AC00001E0206802906069C007C00F0028F8D1CB
:101AD00000BF6069202108400028FAD00020606023
:101AE000E060206160690290A06802902A46214669
:101AF0003046FFF7D5FE01900198002805D00398E5
:101B0000FFF73DFF019807B0F0BD039800F01CFB04
:101B10000746002F05DBF906C90E012088409349CE
:101B2000086000BF039800F00FFB0746E97900F05A
:101B3000CFFA039800F008FB0746002F0ADB00BF2E
:101B400000BFF906C90E0120884084498039086029
:101B500000BF00BF00BF0198D5E7FFB581B00646C2
:101B60001746022E00DA03E0EC216FA0FEF758FDC5
:101B7000002F00D003E0ED216BA0FEF751FD2820DF
:101B8000704377494418304600F0D9FA0546207A68
:101B9000C007C00F002803D00220C04305B0F0BD2D
:101BA000A06840084000401CA0600298E0606761A7
:101BB0000020E0610498002815D10BE0E069411C89
:101BC000E161E168095C296000BF68692021084083
:101BD0000028FAD0E16960698842EFD8A06840081F
:101BE0004000A0601FE02520005D00280CD0686840
:101BF0002021084368602420005D6369E1682A466B
:101C00000090FEF741FE0EE06869202108400028A0
:101C100005D0E069411CE161E168095C2960686800
:101C20000221084368600020B8E7FFB583B006468C
:101C30001746022E00DA04E0FF212C313AA0FEF70D
:101C4000EFFC002F00D004E0FF212D3136A0FEF77D
:101C5000E7FC2820704342494418304600F06FFAF0
:101C60000546207A8007C00F002803D00220C04319
:101C700007B0F0BD0221A0688843801CA0600498D2
:101C80002061A76100202062069800282ED124E060
:101C9000002100BF6869C007C00F0028FAD068693A
:101CA000082210400143686904221040014368691A
:101CB000022210400143002905D0A0689043A06093
:101CC0000820C043D4E72A680292029AD3B2206A5D
:101CD000421C22622269135400BF216AA069884213
:101CE000D6D80221A0688843A06014E02720005DB8
:101CF00000280CD068681021084368602620005D29
:101D0000A369226929460190FEF7BEFD03E06868D9
:101D10000121084368600020AAE770B50646022E3C
:101D200026DA2AE0280000202E2E5C2E2E5C2E2E95
:101D30005C2E2E5C2E2E5C6472697665725C61335B
:101D400031743231785C736F757263655C61333105
:101D5000743231785F756172742E630080E100E047
:101D6000A4000020004000400041004080E200E06C
:101D7000FF217231F748FEF753FC28207043F649E3
:101D80004518304600F0DBF90446E068402108437E
:101D9000E060E0688843E060A86840084000A86010
:101DA0000221A8688843A860002070BDF8B50446E9
:101DB0000E461746022C00DA04E0FF218731E54881
:101DC000FEF72EFC28206043E3494518252047559F
:101DD00024204655002F0ED00020009000BF600048
:101DE000801CC0B269460870FEF7CCFC69463046DC
:101DF000FEF711FD03E02421485DFEF738FD0020C9
:101E0000F8BDF8B504460E461746022C00DA04E089
:101E1000FF21AC31CF48FEF703FC28206043CE49B8
:101E200045182720475526204655002F0FD0CB4870
:101E30000068009000BF6000401CC0B26946087096
:101E4000FEF7A0FC69463046FEF7E5FC03E02621DC
:101E5000485DFEF70CFD0020F8BD70B506460C4647
:101E6000022E00DA04E0FF21D131BA48FEF7D8FB98
:101E7000304600F064F905466869402108400028B2
:101E800002D00020207001E001202070002070BDF1
:101E900070B504460D46022C00DA04E0FF21E8315B
:101EA000AC48FEF7BDFB204600F049F906467069D4
:101EB0004006400E2870002070BD70B505460C46E7
:101EC000022D00DA04E0FF21F731A248FEF7A8FB5B
:101ED000072C00DC04E0FF21F8319E48FEF7A0FB50
:101EE000284600F02CF906463463002070BDF7B593
:101EF00007460D460026022F00DA03E09849954870
:101F0000FEF78EFB384600F01AF904462B0001F06C
:101F100035FF0604060A080C0E1001260CE0022606
:101F20000AE0082608E0042606E0102604E0202641
:101F300002E00520C043FEBD00BF0298002803D088
:101F400060683043606002E06068B0436060002019
:101F5000F1E7F0B585B006460020019028207043D7
:101F60007D494418304600F0EAF805466868049058
:101F7000A8680390062103980840062831D104215F
:101F80000198084301906869029010210298084066
:101F9000002803D0082101980843019008210298E5
:101FA0000840002803D01021019808430190042123
:101FB00002980840002803D020210198084301908E
:101FC000022102980840002803D0402101980843CC
:101FD00001902868C1B200910020686068460078CE
:101FE00060E010210498084010280FD10221A06859
:101FF0008843A0600021272001556868102188438C
:10200000686002210198084301901AE004210398B6
:102010000840002815D02F68226A21698F54206A51
:10202000401C2062216AA06988420AD10221A0686E
:102030008843A060686840084000686001980843D1
:10204000019020210498084020280FD1A068400862
:102050004000A060002125200155686820218843A8
:10206000686001210198084301901BE00221039858
:102070000840002816D0E1696069884206D0E0690E
:10208000411CE161E168095C29600BE0A06840083F
:102090004000A060686802218843686001210198BF
:1020A000084301902068002806D00198002803D03A
:1020B000226861680198904705B0F0BD10B5002016
:1020C000FFF747FF10BD10B50120FFF742FF10BD1D
:1020D00010B5002819DB234A03231B02D2188308FA
:1020E0009B00D2588307DC0EFF23A3409A438B0743
:1020F0001B0E8407E40EA3401A431A4B0324240248
:102100001B198408A4001A5118E0174A03071B0F73
:10211000083B9B089B00D2588307DC0EFF23A3409B
:102120009A438B071B0E8407E40EA3401A430E4B01
:102130000407240F083CA408A4001A5110BD01464E
:1021400008020A4A8018704701460846133040B218
:1021500070470000281D0000A4000020643E00001D
:102160000702000000E100E01CED00E0004000403C
:10217000F8B505461C26302000F09EF9782000F0C6
:102180009BF9002714E02846F0400407240F092C8F
:1021900005DC21463031C8B200F08EF904E021465A
:1021A0005731C8B200F088F9301FC6B2781CC7B2E8
:1021B000082FE8DBF8BD064600F077F9482000F06C
:1021C0007BF9612000F078F9722000F075F9642045
:1021D00000F072F9462000F06FF9612000F06CF910
:1021E000752000F069F96C2000F066F9742000F0A9
:1021F00063F90D2000F060F90A2000F05DF9002479
:1022000019E0202000F058F9002507E0A10061182E
:102210000B4A8918485D00F04FF96D1C052DF5DB60
:10222000A1007058FFF7A4FF0D2000F045F90A2027
:1022300000F042F9641C082CE3DB00BFFEE700005D
:10224000673E00000FB408B503A8009080211B482A
:10225000009B029A00F04CF900200090174918A04A
:1022600000F062F9002001B008BC04B01847F8B5CE
:1022700006460F460024002513E0782C07DB0F49A3
:10228000081910A100F05EF9001984B20BE0725D2C
:102290000A4908190CA100F055F9001984B2681C0C
:1022A00085B2BD42E9DB00BF0449081908A100F06E
:1022B00049F9024902A000F037F9F8BDF400002006
:1022C000257300002E2E2E002530325820000000ED
:1022D0000A00000070B504460D46E0B200F041F877
:1022E00070BD70B5054607E0002000F0B3F8044665
:1022F000601C002800D000E0F6E700BF204670BD5B
:1023000001460020C043704710B50446E0B200F01B
:1023100028F810BD00BFFEE7016000238371531E43
:10232000838000238360C360704701468A68CB685E
:102330009A4201D1012070470020FCE7826883881F
:102340001A40036899548268521C82607047C268C0
:1023500083881A4003689A5C0A70C268521CC26083
:10236000704710B504460A2C02D10D20FFF7F9FF83
:1023700072B600BF5548807900280BD1012153481F
:1023800000F0A1F8524804705248006801695048B2
:10239000884710E000BF4D4B9868D9689A88431A67
:1023A000934201D2012300E00023002B03D02146F9
:1023B0004648FFF7C3FF62B6204610BD10B5464839
:1023C00000780D2803D10A20FFF7CBFF03E0424835
:1023D0000078FFF7C6FF41480068002805D03E4856
:1023E00000783E490968884709E03B4801783C4845
:1023F000FFF7A4FF3748006881683748884710BD59
:1024000010B53248FFF791FF002804D000212F4873
:1024100000F059F808E02E492C48FFF798FF2D48A6
:10242000006801692A48884710BD10B5044629484C
:102430000460014609680868804710222949284835
:10244000FFF76AFF0122520227492048FFF764FF85
:10245000002010BD38B504462048046000680028FC
:1024600005D01C48006881681B4888471AE000BFF7
:102470001B488079002808D10121194800F023F871
:10248000144800688168144888471548FFF74DFFD5
:10249000002806D169461248FFF759FF68460078C0
:1024A00038BD00BF0020C043FAE710B50446094913
:1024B00009684868804710BD01B506480068416951
:1024C0006846884708BD817170470000940300206A
:1024D0004C000020540000204D000020500000203F
:1024E0008403002074010020840100207047000054
:1024F0007CB51D4616460C00009001D00019401E08
:10250000084B7B442A4669460190304600F05DFB4B
:10251000002C054603D06946002000F069FB2846E0
:102520007CBD0000F50600000FB4054910B503AAF4
:10253000029800F081FB10BC08BC04B018470000F2
:10254000400000200FB41CB5084B06AA7B44694626
:102550000090059800F039FB04460020694600F021
:1025600047FB20461CBC08BC04B01847A10600006D
:1025700070B5044685690068C10601D5302600E0C3
:102580002026C00707D070BD62683046A16890471A
:10259000206A401C20626D1EF6D570BD70B50446E1
:1025A00085690078C00707D170BD6268A1682020E6
:1025B0009047206A401C20626D1EF6D570BD70B534
:1025C0000C460546012A05D02878800600D5EA6920
:1025D000002302E0012305E05B1C934202D2E05C91
:1025E0000028F9D1A869E618C01AA861286AC0189D
:1025F00028622846FFF7BCFF04E06A682078A968D3
:10260000641C9047B442F8D32846FFF7C7FF70BD5B
:10261000F8B50F460188090502D5224C7C4402E03A
:10262000204C7C440E3405460021243508E0160772
:102630001209360FA65D6E541E0732431B09491C52
:1026400016461E43F3D1224604780023240705D5FD
:10265000702F06D0002901D00223113200F00EFAAB
:10266000F8BD01231032F9E770B504460D46214646
:10267000106800F0FAF90023024629462046FFF7C9
:10268000C7FF70BDD21DD308DB000CCBC0E730B450
:10269000036820241268234303600823C36130BC0D
:1026A0000023B5E76F180000F3B50446002081B0A1
:1026B00020622046E1688847002872D0252802D091
:1026C0006268A168ABE0594F00267F442046E1686C
:1026D00088472028054608DB312D06D27819203896
:1026E0000078002801D00643F0E7B00701D50420A8
:1026F00086430020E0610746A0612A2D0AD02846C3
:1027000001F060FB002827D0B8000019303D009090
:10271000856119E00298BA00121902C8916102900D
:102720002046E1688847012F054617D1E069002857
:102730001FDA202086431CE000980A218069484364
:1027400000994019303888612046E168884705467D
:1027500001F038FB0028EFD1012F0AD02E2D08D12F
:102760002046E16888470546202006437F1C022F4B
:10277000C3DBA069002803DA4042A06101200643C0
:10278000F00701D0102086436C2D0BD0682D09D0A6
:102790004C2D3CD06A2D38D0742D38D07A2D36D0BF
:1027A00016E040E0E1682F4620468847B8420546DB
:1027B00009D16C2F29D001208002E1680643204610
:1027C0008847054604E06C2F1DD0FF2001300643EA
:1027D000002D28D028464138192803D80120C002EE
:1027E00006432035204626602946029A1646FDF704
:1027F000A5FC002810D001280BD0F61DF008C00061
:102800000830029055E74020E1E78020D5E700201E
:10281000D3E7361D02964CE762682846A1689047C8
:10282000206A401C44E7206AFEBD0000E917000052
:1028300001E004C0091F0429FBD28B0701D50280E7
:10284000801CC90700D00270704700290BD0C30755
:1028500002D00270401C491E022904D3830702D50E
:102860000280801C891EE3E70022EEE70022DFE7FA
:10287000024670B50A4392072AD11E4DEE0104C8E4
:1028800008C9541B9443344017D0D0B2D9B2401A6F
:102890002106014310D190B299B2401A210401439C
:1028A0000AD110021902000A090A401A2102014342
:1028B00002D1100E190E401A70BD9A42DFD010BA24
:1028C00019BA884201D9012070BD0020C04370BDF3
:1028D00002780B78401C491C002A09D09A4207D183
:1028E00002780B78401C491C002A01D09A42EFD094
:1028F000D01A70BD01010101002203098B422CD3C3
:10290000030A8B4211D300239C464EE003460B433F
:102910003CD4002243088B4231D303098B421CD3A1
:10292000030A8B4201D394463FE0C3098B4201D393
:10293000CB01C01A524183098B4201D38B01C01ACB
:10294000524143098B4201D34B01C01A5241030942
:102950008B4201D30B01C01A5241C3088B4201D3F1
:10296000CB00C01A524183088B4201D38B00C01A9E
:10297000524143088B4201D34B00C01A5241411AC5
:1029800000D201465241104670475DE0CA0F00D0A8
:102990004942031000D34042534000229C460309A1
:1029A0008B422DD3030A8B4212D3FC22890112BA27
:1029B000030A8B420CD3890192118B4208D38901FF
:1029C00092118B4204D389013AD0921100E0890917
:1029D000C3098B4201D3CB01C01A524183098B42F8
:1029E00001D38B01C01A524143098B4201D34B01E1
:1029F000C01A524103098B4201D30B01C01A524144
:102A0000C3088B4201D3CB00C01A524183088B42CA
:102A100001D38B00C01A5241D9D243088B4201D353
:102A20004B00C01A5241411A00D20146634652413E
:102A30005B10104601D34042002B00D5494270473D
:102A400063465B1000D3404201B50020C046C0463B
:102A500002BD70477047704709684A0501D540B20A
:102A60007047C905FCD500B2704709684A0501D511
:102A7000C0B27047C905FCD580B27047FFB50446A7
:102A80000D4681B0243000902168880604D51022BC
:102A9000E0699143216000E00120A84201DD471B6D
:102AA00000E000270498A1697A191018081AA0619B
:102AB0002078C00602D42046FFF75AFD002608E021
:102AC00003986268A168805D9047206A401C761C6C
:102AD000206204988642F3DB2078C0060AD520469F
:102AE000FFF746FD06E06268A16830209047206A43
:102AF000401C206238467F1E0028F4DC07E0009866
:102B00006268A168405D9047206A401C20622846A8
:102B10006D1E0028F3DC2046FFF740FD20780006FC
:102B200002D5022005B0F0BD0120FBE7F7B5002576
:102B300075291068009914A611D0FFF78DFF0028A1
:102B400002DA404211A608E0009909688A0701D517
:102B50000FA602E0490704D50EA6012501E0FFF704
:102B600084FF009F0024243704E000F034FD30315E
:102B70003955641C0028F8D12B463246214600986E
:102B8000FFF77CFFFEBD0000000000002D000000EC
:102B90002B0000002000000011680268006A530545
:102BA00001D5087009E0D30501D5088005E01306BA
:102BB00002D5C21705C100E008600120704700007F
:102BC00001694A1C02610878704700B58FB0029114
:102BD0000021059105490193794403911146049020
:102BE0006846FFF761FD0FB000BD0000E5FFFFFF85
:102BF0000A681070521C0A6070470CC908399A4262
:102C000002D2531C0B601070704710B54369002B43
:102C100002D0C046C04601E0FFF7D1FC012010BD44
:102C20001278014624310A7000224A700122ECE732
:102C300011680022D243E8E7084B70B50D467B448B
:102C4000FFF7C3FF04462846FFF75AFB002802D0CF
:102C50000020C04370BD204670BD000093F6FFFF0A
:102C6000F7B50446154686B02B487844002703C8BC
:102C70003E460090019111E007986A467100415A62
:102C800002A800F088FC411C07D02178890603D5F2
:102C9000E269391891420ED83F18761C20788006D8
:102CA00002D5E069B84206DDAE42E5DB0798710067
:102CB000405A0028E0D1A069C01BA0612046FFF760
:102CC00057FC154878445A3803C8009000200191F9
:102CD00016E041006A460798415A02A800F05BFCE2
:102CE0000590401C0AD0002505E0626802A8A16892
:102CF000405D90476D1C05988542F6D30498401CB2
:102D0000B0420490E5DB206AC01920622046FFF73C
:102D100045FC09B0F0BD00005A120000F7B5D21D05
:102D20000025D20815A6D200F52905CA11D0002A1F
:102D300005DA00214042914111A60A4608E00099B7
:102D400009688B0701D50FA602E0490701D50EA639
:102D500001251146009F0024243704E000F04EF8BE
:102D600030323A55641C02460A43F7D12B463246AC
:102D700021460098FFF782FEFEBD00000000000023
:102D80002D0000002B0000002000000070B504465C
:102D90000021243408E05507D2086D0F3035655402
:102DA0005D072A43DB08491C15461D43F3D104681F
:102DB000002310A2250708D5A40601D4002904D0B9
:102DC000C46901230CA2641EC461FFF757FE70BDE5
:102DD00010B5044621461068FFF747FE002302465F
:102DE0002046FFF7D3FF10BDD21DD108C9000CC982
:102DF000CCE7000000000000300000000B4670B57A
:102E0000024689078008084319469D08141AA941FB
:102E100025090807054308092C194841250A010618
:102E20000D43010A2C194141200C0D0428430D0CBF
:102E300000194D41002140194D41C0086907084360
:102E4000E908840F8D002543840024184D4124197E
:102E50006D41121BAB4107E00925ED432C115219BE
:102E600063410024401C61411C460A250026551B75
:102E7000B441F1D270BD00007047FFB50C461E464C
:102E80008FB003CA089009914F007D0D00D16D1ECF
:102E9000002108460020C0460321099A8905084000
:102EA000002A03DA8200801840080840800D0128BB
:102EB0000A9002DD0020C0430A90089807430DD015
:102EC000F048F149281848430714189800281DD0E5
:102ED0007542291E1DDD0A9842421BE01898012800
:102EE00002D00020302104E00020F24305E021540C
:102EF000401CB042FBDB30460022189B00212154CD
:102F00000F998B600A60486013B0F0BDBD1B6D1C4B
:102F1000DFE70A9A002900DA69420BA800F0DEFB1D
:102F20000BAB07CB03AB07C30899099800F042FC31
:102F30006B4607C30146D5480918002D00910BDDEB
:102F4000D24903980A9A49424018002303A90390E2
:102F5000684600F09FFE08E003990A9A00230818CB
:102F600003A90390684600F03FFE6B4607C30004C8
:102F7000000C03D00020C043410800E01046189A1E
:102F8000002A03D00022009215461EE0751E05D4CB
:102F9000FFF734FF303262556D1EF9D50122084328
:102FA000079602D000227F1C04E02078302801D14F
:102FB00000227F1E002A069787D01EE0112D07DA17
:102FC000FFF71CFF303262556D1C02460A43F5D1F3
:102FD000084303D00098002819D00EE00021681E95
:102FE00005E0235C625C63542254401E491C81420C
:102FF000F7DBA81B401E07950690079A189900203A
:10300000A0540F98079B069A81600CC07CE711269C
:103010000020189059E7D21DF0B50D460446D1089E
:1030200093B0C90003C90C900D9100F0B5FE0246A3
:103030000D98C00F01D02D2007E02068810701D531
:103040002B2002E04007C00F4001032A0F9001D05F
:10305000072A05DB03462946204600F0FBFA0EE16D
:103060002078800601D5E76900E006272846652D0F
:1030700004D0662814D0672D69D12DE00020112FCF
:10308000009001DB112300E07B1C0CAA03A910A80F
:10309000FFF7F3FE1199002610987D1C0E9142E077
:1030A00001203B460CAAC0070B900120009003A909
:1030B00010A8FFF7E2FE119D129810990026002833
:1030C0000E9501D1781C0D18781B02D446427D1C48
:1030D000761EE81B00903AE0012F00DA012700205D
:1030E000112F009001DD112300E03B460CAA03A93B
:1030F00010A8FFF7C2FE11993D46109800260E91C8
:10310000217809070BD40E99A94200DA0D4603A9CC
:10311000012D04DD4A19203AD27F302A06D0B84268
:1031200001DA011D04DA012100910FE06D1EEFE7C5
:10313000002802DC86192D1A03E0411CA94200DD9B
:103140000D46801B401C00900120C0070B9020788A
:10315000000705D40098A84202DB0020C04300907D
:1031600069460020C8720B98012102AF0337C907D6
:10317000884225D0022010902B2011900B98002817
:103180000BDA40420B902D20119006E00B9800F0D6
:1031900022FA30317F1E0B9039701099481E002999
:1031A0001090F3DC0B980028F0D111987F1E387036
:1031B0002088000501D5452000E065207F1E38707D
:1031C00001A8C01BC01D0B900F98002800D0012043
:1031D00041190098C01709180B980818A169081A16
:1031E000401EA0612078C00602D42046FFF7C0F937
:1031F0000F98002805D06268A1689047206A401C9B
:1032000020622078C00625D52046FFF7B1F921E0DD
:10321000002E07DB0E98B04204DD03A86268805DD3
:10322000A16802E06268A16830209047206A761C9D
:10323000401C20620098401E002800900AD100F037
:1032400005FAC06862680168405CA1689047206A1E
:10325000401C206228466D1E0028D9DC07E0626809
:103260003878A1687F1C9047206A401C20620B9927
:10327000481E00290B90F2DC2046FFF78FF903204F
:1032800042E6000001FCFFFF104D0000E1DFFFFF00
:10329000D21DF0B504460D46D0088DB0C00046687A
:1032A00007683146384600F077FD0246F00F01D03E
:1032B0002D2307E02068810701D52B2302E040077A
:1032C000C00F43016846002B037001D0012000E0CD
:1032D0000020032A0A9001D0072A04DB2946204651
:1032E00000F0B8F92DE12078800601D40D2500E02A
:1032F000E5697000400D0D2D01904BDA300D002175
:103300000B9008460020C046032189050840002E86
:1033100005DA82008018C20F10184010084080158E
:10332000012801DD0020C043A9000023182906D38D
:103330009C460A460123183A1B07D34003E00122AA
:103340001205CA4094460C31202902D33A4620394E
:1033500000E032468A40002802DD002A06D119E04A
:10336000002817D10121C9078A4213D319466346A1
:103370007F185E41002806D10120C007824202D199
:10338000084687439E430B98310D814202D0019835
:10339000401C01902088000502D57149794402E063
:1033A0006F49794419396B460A9830221A540A98A1
:1033B0000A7C401C1A54401C0A900198002801DC29
:1033C000302000E031201872019A0120002A02D03A
:1033D000644BD21804E072003A4302D0614A521C96
:1033E0000192002D02DC2278120703D56A462E20B6
:1033F000507202200022864694460CE032033601C9
:10340000120F6D1E8B5C02AA13546246521C401CA4
:103410009446052A01DA002DF0DC002202AE08E015
:103420003B0F3F01CB5C521C6D1E3354401C082ADD
:1034300001DA002DF4DC23689A0601D511E0401E64
:10344000704504DD3218203AD27F302AF7D00028A8
:1034500007DD3218203AD27F2E2A02D11A0700D473
:10346000401E002D03DD3E223254401C6D1E497C5F
:1034700031540199401C002906DA2D21471C315492
:1034800001984042019003E02B21471C31540198E0
:103490007D21C900884206DBFFF738FA3030F0554D
:1034A0007F1C019101E0642808DB01986421FFF78B
:1034B0002DFA3030F0557F1C019101E00A2806DB1F
:1034C00001980A21FFF722FA3030F0557F1C01984D
:1034D0000A21FFF71BFA3031F1550A98A1697F1CC8
:1034E0007A191018081AA0612078C00602D4204664
:1034F000FFF73EF8216A6E460A980818206204E039
:1035000062683078A168761C90470A98401E0A903D
:10351000401CF5D12078C00602D52046FFF728F8D8
:1035200002AE09E03078761C3E280DD06268A168B2
:103530009047206A401C20627F1EF3D22046FFF78E
:103540002DF80DB00320F0BD206A4019206203E081
:103550006268A168302090476D1EEDD3F8E7000047
:10356000430B000001FCFFFF10B54369002B02D0A4
:10357000C046C04601E0FFF773FB012010BD128872
:103580000146243182840022C2840122ECE71168C2
:103590000022D243E8E770B516460C46054600F017
:1035A0004DF80368FF200230C05C012807D0FF2CD3
:1035B0000ED8185D00280BD001202C7070BDFF3391
:1035C0003246214608331868C3182846984770BD0C
:1035D0000020C04370BD01468008081A0209101877
:1035E000020A1018020C1018C008820012185200AB
:1035F000891A01E0401C0A390A29FBD27047754636
:1036000000F0A0FBAE46050069465346C008C00066
:10361000854618B020B5FDF79FF860BC0027490823
:10362000B6460026C0C5C0C5C0C5C0C5C0C5C0C55A
:10363000C0C5C0C5403D49008D46704710B500F07B
:1036400005F8001D10BD00BFB90700000048704715
:10365000C4030020F8B51F46044601230068DB02BE
:10366000032601461840072A05DB002801D017A5CC
:1036700006E017A504E0002801D016A500E016A575
:10368000102081432160A069C01E002FA06101D0DD
:10369000401EA0612046FEF76BFF002F09D0384680
:1036A0006268A1689047206A401C2062C01C2062AA
:1036B00006E0206AFAE762682878A1686D1C9047E6
:1036C000761EF8D22046FEF769FFF8BD4E414E0047
:1036D0006E616E00494E4600696E6600F7B516468B
:1036E0008AB0334878446C4603467C33C06F5A68CE
:1036F0009B680DC42E487844763003AC0DC80DC4C9
:103700003720C001081837211B30FFF7FFF80546A6
:103710000C46803D1B3C02D56442012000E00020A5
:103720000027099010E0E0070CD00C2020497843D6
:10373000794432464C3941186846012300F054FA66
:103740006B4607C364107F1C002CECD1184F7F44DC
:103750002E3F16E0E80712D02001C0190EC80691CE
:10376000089307920068F04201D1981908903246F8
:10377000012306A903A800F037FA03AB07C36D10B5
:10378000641C002DE6D10998002806D0324669460F
:10379000012303A800F07EFA05E0012332466946C2
:1037A00003A800F021FA0A9B07C30DB0F0BD00008A
:1037B00010080000034640000A4610B5400D0BD02B
:1037C0000121C9070F24A40200191C036408214326
:1037D000540D2143D20207E000210120F2E7D40F6B
:1037E000490021435200401E0029F8DADB0FDB07B5
:1037F000184310BDFFB50D46144685B048685168A2
:1038000000F0A4FA00910190A868A16800F09EFA67
:1038100002910390A868616800F098FA029A121861
:103820008242029201D2012000E00020019A0B188E
:10383000D2180028019202D08A4202D903E08A42BB
:1038400001D2012000E0002000990818009068686B
:10385000A16800F07BFA029A12188242029201D209
:10386000012000E00020019A0B18D21800280192D4
:1038700002D08A4202D903E08A4201D2012000E04C
:10388000002000990818009028682168400049002D
:10389000400849084018FA49471814E001994000C7
:1038A000C90F08430090019802994000C90F0843CE
:1038B0000190029803994000C90F084302900398B1
:1038C00040007F1E039000980028E7DA089800283F
:1038D00001D0EC4E00E00026B74201DA012000E002
:1038E0000020002804902AD0F71BF806C00E15D03F
:1038F000029B2021091A039A8B401A430392029AD1
:10390000019BC2408B401A430292019A009BC24025
:103910008B4000991A430192C14000917B110DD058
:103920006F460320C11A03D500218200B95003E07D
:103930008A008100BA587A50401EF3D53746039862
:103940000299002800D00120014308980291002824
:1039500008460CD0002800D001200199019A4905A1
:1039600008430121D20AC902D202019200E00121DA
:103970000E9B0122D207012B02D0002B03D013E0B3
:10398000002807D120E0904204D890420CD1019B3E
:103990000B4209D0019B5918019105D10099491C8E
:1039A000009101D17F1C009200280DD01021084603
:1039B0000020C0460498002806D00F98002803D0A5
:1039C000082108460020C04628682168019B009A0B
:1039D0004840C10F0598C90739430EC009B0F0BD72
:1039E000FFB587B0099A08980899536892684068AB
:1039F000896896460022039317469446089A1268EF
:103A00005300099A5B081268520052089A1A9E4B9A
:103A1000D4180A9A002A01D0352200E040220692EA
:103A20000022012315460492DB07059324E0002DB4
:103A300005D175460346039E4D1BB34109D3754618
:103A40006646039B491B049D9841059B7519AC462E
:103A50005F4163463B4308D0059B049EDD07760823
:103A60002E435B080496059301E0521E641EC50FA9
:103A7000ED0749184041521C069B9A42D7DB002DA6
:103A800004D17546039A6B1A824101D203200CE0DF
:103A9000039A0B466B404240134303D0014303D0CB
:103AA000012002E0022000E0002061460191002197
:103AB000009702910A99002905D06146400201430E
:103AC000704B019102E08007002302909C4201DAD2
:103AD000012000E0002007003AD01A1BD006C00EDB
:103AE00015D0029D2021019C091AC5408C40254318
:103AF000029C8C4000D001242543019C0295009D2E
:103B0000C4408D4000992C430194C1400091541150
:103B10001DD06D460221002202290CD10320001B7A
:103B200007E0002804DB8600AE59002E00D00122F9
:103B3000401C0328F5DB081B02D588002A5004E04E
:103B40008000285810438A00A850491EE3D51C461F
:103B50000A98002802980CD0002800D00120019972
:103B6000019A490508430121D20AC902D2020192F1
:103B700000E00121109B0122D207012B02D0002B73
:103B800003D013E0002807D11FE0904204D89042F0
:103B90000CD1019B0B4209D0019B5918019105D111
:103BA0000099491C009101D1641C009200280CD09E
:103BB000102108460020C046002F06D0119800288A
:103BC00003D0082108460020C04608980999019AA8
:103BD000009B006809684840C10F0798C907214346
:103BE00082600AC00BB0F0BD00B585B001930092B1
:103BF0000A460146002302A8FFF7FCFD02A807C8F9
:103C000005B000BDFFB50A461F4685B00799019370
:103C100001230091014602A8FFF7ECFD02990398E9
:103C2000049ECA0F4900D20700920F22490892024F
:103C30008C1A0021002800DB0C46450013486D0853
:103C4000844214D3079A002A04DA441E0026104D39
:103C5000F64302E004460D460E46102108460020B9
:103C6000C046002F03D0042108460020C04620058E
:103C7000E90A0843009908436905F20A1143ADE6D1
:103C800002C0FFFF013C0000FF3F0000FF070000F3
:103C9000FFFFFF7F00B585B0019300920A46014601
:103CA000002302A8FFF79CFE02A807C8A8E7FFB5FB
:103CB0000A461F4685B007990193012300910146EA
:103CC00002A8FFF78DFE02990398049ECA0F4900CF
:103CD000D20700920F22490892028C1A0021002874
:103CE00000DB0C46450011486D08844214D3079A46
:103CF000002A04DA441E00260D4DF64302E0044675
:103D00000D460E46102108460020C046002F03D065
:103D1000042108460020C0462005E90A084300990E
:103D200008436905F20A114358E60000FF07000046
:103D3000FFFFFF7F10B50446C046C0462046FCF793
:103D400089FA10BD00487047A4030020F8B5040CA0
:103D50008BB2264682B25E43104658430D0C370C98
:103D6000360400218019164679416E43370C36041B
:103D70008019264679416E438919F8BD30B47446DE
:103D8000641E2578641CAB4204D3635D5B00E318BA
:103D900030BC18471D46F8E74900CA02024310002C
:103DA00000D004204A0D01D001221043044A490DDD
:103DB000914201D102210843012800D1052070471A
:103DC000FF07000030380A2801D201207047002088
:103DD0007047000010B500290AD00878002807D0E5
:103DE00005487844FEF744FD002801D0002010BDAE
:103DF0000248784410BD0000CA010000C201000062
:103E000010B500290AD00878002807D00548784462
:103E1000FEF72EFD002801D0002010BD0248784496
:103E200010BD0000BA010000B201000003B4024856
:103E30007844844603BC6047E3F1FFFF03B40248C3
:103E40007844844603BC60474DF4FFFF0608000039
:103E500000127A000000010300010000802500002C
:103E60000300000F000001523020203A5231202080
:103E70003A523220203A523320203A523132203AFC
:103E80004C5220203A504320203A785053523A3036
:103E90003132333435363738394142434445464070
:103EA0003058003031323334353637383961626357
:103EB00064656640307800040000080000000000DF
:103EC00000000200010000100000000000000000DF
:103ED0003031323334353637383961626364656680
:103EE0007870003031323334353637383941424317
:103EF000444546585000000002400000000000A069
:103F00000000000005400000000000C800000000A4
:103F10000C4000000000409C000000001940000020
:103F20000020BCBE0000000034400000BFC91B8E52
:103F300000000004B5400000504BCFD06607E2CF30
:103F4000010000006C4100003E8251AADFEEA73460
:103F500001000000D9420000DCB5A0E23A301F9712
:103F6000FFFFFFFFB4450000FD25A0C8E9A3C14F36
:103F7000FFFFFFFFFF3F0000000000800000000087
:103F8000FF3F00000000008000000000D84000005B
:103F90000000002058000000040100003041000033
:103FA00058000020B00B0000200100001C000000A1
:103FB00043000000F8FFFFFF0C0000000E000000AF
:103FC0000F0000002E000000100100004300000060
:103FD000F8FFFFFF0040404040404040404041412A
:103FE00041414140404040404040404040404040CE
:103FF0004040404040050202020202020202020268
:104000000202020202202020202020202020200264
:1040100002020202020290909090909010101010F4
:104020001010101010101010101010101010101090
:104030000202020202028888888888880808080824
:1040400008080808080808080808080808080808F0
:104050000202020240000000000000000000000018
:104060000000000000000000000000000000000050
:104070000000000000000000000000000000000040
:104080000000000000000000000000000000000030
:104090000000000000000000000000000000000020
:1040A0000000000000000000000000000000000010
:1040B0000000000000000000000000000000000000
:1040C00000000000000000000000000000000000F0
:1040D00000000000000000000200020102020203D2
:1040E00002040205000000007105000089050000BF
:1040F00093050000A5050000B7050000C9050000F4
:1041000000000000000000000000000000000000AF
:10411000000000000000000000000000000000009F
:10412000000000000000000000000000000000008F
:04000005000000C136
:00000001FF
